{
  "contractName": "Book",
  "abi": [
    {
      "constant": true,
      "inputs": [
        {
          "internalType": "uint256",
          "name": "",
          "type": "uint256"
        }
      ],
      "name": "books",
      "outputs": [
        {
          "internalType": "address",
          "name": "",
          "type": "address"
        }
      ],
      "payable": false,
      "stateMutability": "view",
      "type": "function"
    },
    {
      "constant": false,
      "inputs": [
        {
          "internalType": "uint256",
          "name": "bookId",
          "type": "uint256"
        }
      ],
      "name": "buyBook",
      "outputs": [
        {
          "internalType": "uint256",
          "name": "",
          "type": "uint256"
        }
      ],
      "payable": false,
      "stateMutability": "nonpayable",
      "type": "function"
    },
    {
      "constant": true,
      "inputs": [],
      "name": "getBooks",
      "outputs": [
        {
          "internalType": "address[20]",
          "name": "",
          "type": "address[20]"
        }
      ],
      "payable": false,
      "stateMutability": "view",
      "type": "function"
    }
  ],
  "bytecode": "0x608060405234801561001057600080fd5b506102b9806100206000396000f3fe608060405234801561001057600080fd5b50600436106100415760003560e01c806368744046146100465780636ee26566146100b45780639f349789146100f6575b600080fd5b6100726004803603602081101561005c57600080fd5b810190808035906020019092919050505061013c565b604051808273ffffffffffffffffffffffffffffffffffffffff1673ffffffffffffffffffffffffffffffffffffffff16815260200191505060405180910390f35b6100e0600480360360208110156100ca57600080fd5b810190808035906020019092919050505061016f565b6040518082815260200191505060405180910390f35b6100fe6101e0565b6040518082601460200280838360005b8381101561012957808201518184015260208101905061010e565b5050505090500191505060405180910390f35b6000816014811061014957fe5b016000915054906101000a900473ffffffffffffffffffffffffffffffffffffffff1681565b6000808210158015610182575060138211155b61018b57600080fd5b336000836014811061019957fe5b0160006101000a81548173ffffffffffffffffffffffffffffffffffffffff021916908373ffffffffffffffffffffffffffffffffffffffff160217905550819050919050565b6101e8610261565b6000601480602002604051908101604052809291908260148015610257576020028201915b8160009054906101000a900473ffffffffffffffffffffffffffffffffffffffff1673ffffffffffffffffffffffffffffffffffffffff168152602001906001019080831161020d575b5050505050905090565b60405180610280016040528060149060208202803883398082019150509050509056fea265627a7a72315820c009c2186039e48b35c34eca9846b579d66c7c3ab852f08b3379bd4dc574735564736f6c63430005100032",
  "source": "pragma solidity ^0.5.0;\n\ncontract Book {\n\taddress[20] public books;\n\n\t// Buy a book\n\tfunction buyBook(uint bookId) public returns (uint) {\n\t\trequire(bookId >= 0 && bookId <= 19);\n\n\t\tbooks[bookId] = msg.sender;\n\n\t\treturn bookId;\n\t}\n\n\t// Retrieving the books\n\tfunction getBooks() public view returns (address[20] memory) {\n  \t\treturn books;\n\t}\n}",
  "sourcePath": "/home/alfredo/manga-go/contracts/Book.sol",
  "compiler": {
    "name": "solc",
    "version": "0.5.16+commit.9c3226ce.Emscripten.clang"
  },
  "schemaVersion": "3.4.16",
  "updatedAt": "2024-01-11T19:03:33.978Z",
  "networkType": "ethereum",
  "devdoc": {
    "methods": {}
  },
  "userdoc": {
    "methods": {}
  }
}